{
  "contractName": "hipoteca",
  "abi": [
    {
      "inputs": [],
      "payable": false,
      "stateMutability": "nonpayable",
      "type": "constructor"
    },
    {
      "constant": true,
      "inputs": [
        {
          "internalType": "address",
          "name": "",
          "type": "address"
        }
      ],
      "name": "balanco",
      "outputs": [
        {
          "internalType": "uint256",
          "name": "",
          "type": "uint256"
        }
      ],
      "payable": false,
      "stateMutability": "view",
      "type": "function"
    },
    {
      "constant": false,
      "inputs": [
        {
          "internalType": "address",
          "name": "devedor",
          "type": "address"
        },
        {
          "internalType": "uint256",
          "name": "montante",
          "type": "uint256"
        }
      ],
      "name": "emprestimo",
      "outputs": [
        {
          "internalType": "uint256",
          "name": "",
          "type": "uint256"
        }
      ],
      "payable": false,
      "stateMutability": "nonpayable",
      "type": "function"
    },
    {
      "constant": false,
      "inputs": [
        {
          "internalType": "bytes32",
          "name": "_endereco",
          "type": "bytes32"
        },
        {
          "internalType": "bytes32",
          "name": "_matricula",
          "type": "bytes32"
        },
        {
          "internalType": "uint256",
          "name": "_valor_emprestimo",
          "type": "uint256"
        },
        {
          "internalType": "uint256",
          "name": "_valor_equivalente",
          "type": "uint256"
        },
        {
          "internalType": "uint256",
          "name": "_juros_mensais",
          "type": "uint256"
        },
        {
          "internalType": "uint256",
          "name": "_data_vencimento",
          "type": "uint256"
        },
        {
          "internalType": "uint256",
          "name": "_percentual_multa",
          "type": "uint256"
        },
        {
          "internalType": "address",
          "name": "_devedor",
          "type": "address"
        },
        {
          "internalType": "address",
          "name": "_credor",
          "type": "address"
        }
      ],
      "name": "pegarEmprestimo",
      "outputs": [],
      "payable": false,
      "stateMutability": "nonpayable",
      "type": "function"
    },
    {
      "constant": true,
      "inputs": [],
      "name": "verEmprestimo",
      "outputs": [
        {
          "internalType": "bytes32",
          "name": "_endereco",
          "type": "bytes32"
        },
        {
          "internalType": "bytes32",
          "name": "_matricula",
          "type": "bytes32"
        },
        {
          "internalType": "uint256",
          "name": "_valor_emprestimo",
          "type": "uint256"
        },
        {
          "internalType": "uint256",
          "name": "_valor_equivalente",
          "type": "uint256"
        },
        {
          "internalType": "uint256",
          "name": "_juros_mensais",
          "type": "uint256"
        },
        {
          "internalType": "uint256",
          "name": "_data_vencimento",
          "type": "uint256"
        },
        {
          "internalType": "uint256",
          "name": "_percentual_multa",
          "type": "uint256"
        },
        {
          "internalType": "address",
          "name": "_devedor",
          "type": "address"
        },
        {
          "internalType": "address",
          "name": "_credor",
          "type": "address"
        }
      ],
      "payable": false,
      "stateMutability": "view",
      "type": "function"
    }
  ],
  "bytecode": "0x608060405234801561001057600080fd5b50336000806101000a81548173ffffffffffffffffffffffffffffffffffffffff021916908373ffffffffffffffffffffffffffffffffffffffff160217905550670de0b6b3a7640000600b60003373ffffffffffffffffffffffffffffffffffffffff1673ffffffffffffffffffffffffffffffffffffffff168152602001908152602001600020819055506105db806100ac6000396000f3fe608060405234801561001057600080fd5b506004361061004c5760003560e01c80630c9af7821461005157806328128db3146100ff57806371364692146101aa578063f47f1bbd14610202575b600080fd5b610059610264565b604051808a81526020018981526020018881526020018781526020018681526020018581526020018481526020018373ffffffffffffffffffffffffffffffffffffffff1673ffffffffffffffffffffffffffffffffffffffff1681526020018273ffffffffffffffffffffffffffffffffffffffff1673ffffffffffffffffffffffffffffffffffffffff168152602001995050505050505050505060405180910390f35b6101a8600480360361012081101561011657600080fd5b8101908080359060200190929190803590602001909291908035906020019092919080359060200190929190803590602001909291908035906020019092919080359060200190929190803573ffffffffffffffffffffffffffffffffffffffff169060200190929190803573ffffffffffffffffffffffffffffffffffffffff16906020019092919050505061032b565b005b6101ec600480360360208110156101c057600080fd5b81019080803573ffffffffffffffffffffffffffffffffffffffff169060200190929190505050610459565b6040518082815260200191505060405180910390f35b61024e6004803603604081101561021857600080fd5b81019080803573ffffffffffffffffffffffffffffffffffffffff16906020019092919080359060200190929190505050610471565b6040518082815260200191505060405180910390f35b6000806000806000806000806000600960000160009054906101000a900473ffffffffffffffffffffffffffffffffffffffff169150600960010160009054906101000a900473ffffffffffffffffffffffffffffffffffffffff169050600460000154965060046001015495506004600201549450600460030154935060048001549250600160000154985060018001549750600160020160009054906101000a900473ffffffffffffffffffffffffffffffffffffffff169150909192939495969798565b60006103378389610471565b111561044e5781600960000160006101000a81548173ffffffffffffffffffffffffffffffffffffffff021916908373ffffffffffffffffffffffffffffffffffffffff16021790555080600960010160006101000a81548173ffffffffffffffffffffffffffffffffffffffff021916908373ffffffffffffffffffffffffffffffffffffffff160217905550866004600001819055508560046001018190555084600460020181905550836004600301819055508260048001819055508860016000018190555087600180018190555081600160020160006101000a81548173ffffffffffffffffffffffffffffffffffffffff021916908373ffffffffffffffffffffffffffffffffffffffff1602179055505b505050505050505050565b600b6020528060005260406000206000915090505481565b600081600b60003373ffffffffffffffffffffffffffffffffffffffff1673ffffffffffffffffffffffffffffffffffffffff1681526020019081526020016000205410156104c357600090506105a0565b81600b60003373ffffffffffffffffffffffffffffffffffffffff1673ffffffffffffffffffffffffffffffffffffffff1681526020019081526020016000206000828254039250508190555081600b60008573ffffffffffffffffffffffffffffffffffffffff1673ffffffffffffffffffffffffffffffffffffffff16815260200190815260200160002060008282540192505081905550600b60008473ffffffffffffffffffffffffffffffffffffffff1673ffffffffffffffffffffffffffffffffffffffff1681526020019081526020016000205490505b9291505056fea265627a7a72315820ba3b5f3a37a2b9fb6727d2b482fde5dfb46da22aae52c6708f2ff1b2479787ea64736f6c634300050c0032",
  "source": "pragma solidity ^0.5.0;\n\ncontract hipoteca{\n\n    address credor1;\n\n    struct Propriedade {\n        bytes32 endereco;\n        bytes32 matricula;\n        address dono;\n    }\n\n    struct Termos_contrato{\n        uint valor_emprestimo;\n        uint valor_equivalente;\n        uint juros_mensais;\n        uint data_vencimento;\n        uint percentual_multa;\n    }\n\n    struct Pessoas{\n        address devedor;\n        address credor;\n    }\n\n    Propriedade propriedade;\n    Termos_contrato termos;\n    Pessoas pessoas;\n\n    constructor() public{\n        credor1 = msg.sender;\n        balanco[msg.sender] = 1000000000000000000;\n    }\n\n    function emprestimo(address devedor, uint montante) public returns(uint) {\n        if(balanco[msg.sender] < montante) {\n            return 0;\n        }\n        balanco[msg.sender] -= montante;\n        balanco[devedor] += montante;\n        return balanco[devedor];\n    }\n\n\n    function pegarEmprestimo(\n        bytes32 _endereco,\n        bytes32 _matricula,\n        uint _valor_emprestimo,\n        uint _valor_equivalente,\n        uint _juros_mensais,\n        uint _data_vencimento,\n        uint _percentual_multa,\n        address _devedor,\n        address _credor) public {\n            if(emprestimo(_devedor, _valor_emprestimo) > 0){\n            pessoas.devedor = _devedor;\n            pessoas.credor = _credor;\n            termos.valor_emprestimo = _valor_emprestimo;\n            termos.valor_equivalente = _valor_equivalente;\n            termos.juros_mensais = _juros_mensais;\n            termos.data_vencimento = _data_vencimento;\n            termos.percentual_multa = _percentual_multa;\n            propriedade.endereco = _endereco;\n            propriedade.matricula = _matricula;\n            propriedade.dono = _devedor;\n        }\n    }\n\n    function verEmprestimo() public view returns(\n        bytes32 _endereco,\n        bytes32 _matricula,\n        uint _valor_emprestimo,\n        uint _valor_equivalente,\n        uint _juros_mensais,\n        uint _data_vencimento,\n        uint _percentual_multa,\n        address _devedor,\n        address _credor) {\n            _devedor = pessoas.devedor;\n            _credor = pessoas.credor;\n            _valor_emprestimo = termos.valor_emprestimo;\n            _valor_equivalente = termos.valor_equivalente;\n            _juros_mensais = termos.juros_mensais;\n            _data_vencimento = termos.data_vencimento;\n            _percentual_multa = termos.percentual_multa;\n            _endereco = propriedade.endereco;\n            _matricula = propriedade.matricula;\n            _devedor = propriedade.dono;\n    }\n\n\n    mapping (address => uint256) public balanco;\n}",
  "sourcePath": "/home/franciscoa/Documentos/oo/contracts/Hipoteca.sol",
  "compiler": {
    "name": "solc",
    "version": "0.5.12+commit.7709ece9.Emscripten.clang"
  },
  "schemaVersion": "3.0.19",
  "updatedAt": "2019-12-03T01:16:04.901Z",
  "networkType": "ethereum",
  "devdoc": {
    "methods": {}
  },
  "userdoc": {
    "methods": {}
  }
}